{
  "contractName": "GoodsTransfer",
  "abi": [
    {
      "anonymous": false,
      "inputs": [
        {
          "indexed": false,
          "internalType": "address",
          "name": "from",
          "type": "address"
        },
        {
          "indexed": false,
          "internalType": "address",
          "name": "receiver",
          "type": "address"
        },
        {
          "indexed": false,
          "internalType": "string",
          "name": "content",
          "type": "string"
        },
        {
          "indexed": false,
          "internalType": "uint256",
          "name": "timestamp",
          "type": "uint256"
        }
      ],
      "name": "Transfer",
      "type": "event"
    },
    {
      "inputs": [
        {
          "internalType": "uint256",
          "name": "",
          "type": "uint256"
        }
      ],
      "name": "transfers",
      "outputs": [
        {
          "internalType": "address",
          "name": "sender",
          "type": "address"
        },
        {
          "internalType": "address",
          "name": "receiver",
          "type": "address"
        },
        {
          "internalType": "string",
          "name": "content",
          "type": "string"
        },
        {
          "internalType": "uint256",
          "name": "timestamp",
          "type": "uint256"
        }
      ],
      "stateMutability": "view",
      "type": "function"
    },
    {
      "inputs": [
        {
          "internalType": "address payable",
          "name": "receiver",
          "type": "address"
        },
        {
          "internalType": "string",
          "name": "content",
          "type": "string"
        }
      ],
      "name": "addToBlockchain",
      "outputs": [],
      "stateMutability": "nonpayable",
      "type": "function"
    },
    {
      "inputs": [],
      "name": "getAllTransactions",
      "outputs": [
        {
          "components": [
            {
              "internalType": "address",
              "name": "sender",
              "type": "address"
            },
            {
              "internalType": "address",
              "name": "receiver",
              "type": "address"
            },
            {
              "internalType": "string",
              "name": "content",
              "type": "string"
            },
            {
              "internalType": "uint256",
              "name": "timestamp",
              "type": "uint256"
            }
          ],
          "internalType": "struct GoodsTransfer.TransferStruct[]",
          "name": "",
          "type": "tuple[]"
        }
      ],
      "stateMutability": "view",
      "type": "function"
    },
    {
      "inputs": [],
      "name": "getTrasactionCount",
      "outputs": [
        {
          "internalType": "uint256",
          "name": "",
          "type": "uint256"
        }
      ],
      "stateMutability": "view",
      "type": "function"
    }
  ],
  "bytecode": "0x60806040526000805534801561001457600080fd5b50610741806100246000396000f3fe608060405234801561001057600080fd5b506004361061004c5760003560e01c806320190a591461005157806327506f53146100675780639377d7111461007c578063f163bf7e1461009f575b600080fd5b6000546040519081526020015b60405180910390f35b61006f6100b4565b60405161005e91906104d4565b61008f61008a36600461056e565b6101d2565b60405161005e9493929190610587565b6100b26100ad3660046105da565b6102a4565b005b60606001805480602002602001604051908101604052809291908181526020016000905b828210156101c9576000848152602090819020604080516080810182526004860290920180546001600160a01b039081168452600182015416938301939093526002830180549293929184019161012e906106aa565b80601f016020809104026020016040519081016040528092919081815260200182805461015a906106aa565b80156101a75780601f1061017c576101008083540402835291602001916101a7565b820191906000526020600020905b81548152906001019060200180831161018a57829003601f168201915b50505050508152602001600382015481525050815260200190600101906100d8565b50505050905090565b600181815481106101e257600080fd5b60009182526020909120600490910201805460018201546002830180546001600160a01b03938416955092909116929161021b906106aa565b80601f0160208091040260200160405190810160405280929190818152602001828054610247906106aa565b80156102945780601f1061026957610100808354040283529160200191610294565b820191906000526020600020905b81548152906001019060200180831161027757829003601f168201915b5050505050908060030154905084565b60016000808282546102b691906106e5565b9091555050604080516080810182523381526001600160a01b038481166020808401918252938301858152426060850152600180548082018255600091909152845160049091027fb10e2d527612073b26eecdfd717e6a320cf44b4afac2b0732d9fcbe2b7fa0cf6810180549286166001600160a01b031993841617815593517fb10e2d527612073b26eecdfd717e6a320cf44b4afac2b0732d9fcbe2b7fa0cf78201805491909616921691909117909355518051939491936103a0937fb10e2d527612073b26eecdfd717e6a320cf44b4afac2b0732d9fcbe2b7fa0cf8019291909101906103ee565b506060820151816003015550507f1d30d3db8e01fa0d5626c471596f822f597e720c26a2930ef20d3387313c3d78338383426040516103e29493929190610587565b60405180910390a15050565b8280546103fa906106aa565b90600052602060002090601f01602090048101928261041c5760008555610462565b82601f1061043557805160ff1916838001178555610462565b82800160010185558215610462579182015b82811115610462578251825591602001919060010190610447565b5061046e929150610472565b5090565b5b8082111561046e5760008155600101610473565b6000815180845260005b818110156104ad57602081850181015186830182015201610491565b818111156104bf576000602083870101525b50601f01601f19169290920160200192915050565b60006020808301818452808551808352604092508286019150828160051b87010184880160005b8381101561056057888303603f19018552815180516001600160a01b0390811685528882015116888501528681015160808886018190529061053f82870182610487565b606093840151969093019590955250948701949250908601906001016104fb565b509098975050505050505050565b60006020828403121561058057600080fd5b5035919050565b6001600160a01b038581168252841660208201526080604082018190526000906105b390830185610487565b905082606083015295945050505050565b634e487b7160e01b600052604160045260246000fd5b600080604083850312156105ed57600080fd5b82356001600160a01b038116811461060457600080fd5b9150602083013567ffffffffffffffff8082111561062157600080fd5b818501915085601f83011261063557600080fd5b813581811115610647576106476105c4565b604051601f8201601f19908116603f0116810190838211818310171561066f5761066f6105c4565b8160405282815288602084870101111561068857600080fd5b8260208601602083013760006020848301015280955050505050509250929050565b600181811c908216806106be57607f821691505b602082108114156106df57634e487b7160e01b600052602260045260246000fd5b50919050565b6000821982111561070657634e487b7160e01b600052601160045260246000fd5b50019056fea2646970667358221220918c56d4a8819321efac0e4dd0a91596aef7eb7f61d3af70de1411db5ccc38fa64736f6c634300080b0033",
  "immutableReferences": {},
  "source": "// SPDX-License-Identifier: MIT\r\npragma solidity >=0.4.21 <8.10.0;\r\n\r\ncontract GoodsTransfer {\r\n    uint256 transactionCount = 0;\r\n    //the event to be emmited when a transaction is made\r\n    event Transfer(\r\n        address from,\r\n        address receiver,\r\n        string content,\r\n        uint256 timestamp\r\n    );\r\n    //the struct to be used to store the data of a transaction in the smart contract\r\n    struct TransferStruct {\r\n        address sender;\r\n        address receiver;\r\n        string content;\r\n        uint256 timestamp;\r\n    }\r\n    //the array of the structs\r\n    TransferStruct[] public transfers;\r\n\r\n    //the function to be called when a transaction is addempted\r\n    function addToBlockchain(address payable receiver, string memory content)\r\n        public\r\n    {\r\n        transactionCount += 1;\r\n        transfers.push(\r\n            TransferStruct(msg.sender, receiver, content, block.timestamp)\r\n        );\r\n\r\n        emit Transfer(msg.sender, receiver, content, block.timestamp);\r\n    }\r\n\r\n    //the function used to fetch the transactions\r\n    function getAllTransactions()\r\n        public\r\n        view\r\n        returns (TransferStruct[] memory)\r\n    {\r\n        return transfers;\r\n    }\r\n\r\n    //function used to fetch the number of transactions\r\n    function getTrasactionCount() public view returns (uint256) {\r\n        return transactionCount;\r\n    }\r\n}\r\n",
  "sourcePath": "C:\\Users\\duta3\\Desktop\\0\\programs\\FLAMEAL\\contracts\\GoodsTransfer.sol",
  "compiler": {
    "name": "solc",
    "version": "0.8.11+commit.d7f03943.Emscripten.clang"
  },
  "schemaVersion": "3.4.3",
  "updatedAt": "2022-04-10T20:41:14.094Z",
  "devdoc": {
    "kind": "dev",
    "methods": {},
    "version": 1
  },
  "userdoc": {
    "kind": "user",
    "methods": {},
    "version": 1
  }
}